:020000040800F2
:10000000B84C0020E9020008FF410008B53700089D
:100010007D410008A5090008E94C00080000000027
:10002000000000000000000000000000290200089D
:10003000DD0D0008000000008502000835460008BC
:100040000303000803030008030300080303000878
:100050000303000803030008030300080303000868
:100060000303000803030008030300080303000858
:10007000A50A00080303000803030008030300089F
:10008000030300080303000803030008F109000844
:10009000E509000803030008030300080303000840
:1000A0000303000803030008030300080303000818
:1000B00003030008054700080303000803030008C2
:1000C00003030008030300080303000803030008F8
:1000D000030300080303000803030008A54B0008FE
:1000E00003030008030300080303000803030008D8
:1000F00003030008030300080303000803030008C8
:1001000003030008030300080303000803030008B7
:1001100003030008030300080303000803030008A7
:10012000B10A0008BD0A000803030008C90A000854
:10013000030300080303000803030008450A00083E
:10014000390A00080303000803030008030300083A
:1001500003030008D50A000803030008DD4C00086B
:100160000303000803030008030300080303000857
:100170000303000803030008030300080000000055
:10018000030300080303000800F002F800F03CF845
:100190000AA090E8000C82448344AAF10107DA45E2
:1001A00001D100F031F8AFF2090EBAE80F0013F0F8
:1001B000010F18BFFB1A43F00103184760690000E4
:1001C00080690000103A24BF78C878C1FAD8520775
:1001D00024BF30C830C144BF04680C6070470000C1
:1001E0000023002400250026103A28BF78C1FBD840
:1001F000520728BF30C148BF0B6070471FB506F0DB
:1002000038FC1FBD10B510BD00F09EF91146FFF778
:10021000F5FF05F0B5F800F0BCF903B4FFF7F2FF05
:1002200003BC00F0BDF900002C4B19680868B0E869
:10023000F04F80F30988BFF36F8F4FF0000080F319
:10024000118870470000000008480068006880F3CB
:1002500008884FF0000080F3148862B661B6BFF3DF
:100260004F8FBFF36F8F00DF00BF00BF08ED00E0CE
:10027000DFF80C00016841F470010160704700BFB5
:1002800088ED00E0EFF30980BFF36F8F134B1A681E
:100290001EF0100F08BF20ED108A20E9F04F10600B
:1002A00009B44FF0500080F31188BFF34F8FBFF3B4
:1002B0006F8F05F045FD4FF0000080F3118809BCF9
:1002C00019680868B0E8F04F1EF0100F08BFB0ECD6
:1002D000108A80F30988BFF36F8F704720000020D9
:1002E000EFF3058070470000094880470948004740
:1002F000FEE7FEE7FEE7FEE7FEE7FEE7FEE7FEE7D6
:10030000FEE7FEE704480549054A064B7047000032
:10031000F546000889010008B8460020B84C0020C6
:10032000B8480020B848002053EA020C00F0698069
:100330002DE9F04B4FF00006002B1FBFB3FA83F5F9
:1003400003FA05F424FA05F65E4012BF1643B2FA2A
:1003500082F502FA05F4C5F120051EBF22FA05FC5C
:1003600044EA0C04203556EA044C4FEA144418BF02
:10037000641C4FF000084FF00009904271EB030C31
:1003800039D3002919BFB1FA81F701FA07F6B0FA9B
:1003900080F700FA07F6C7F120071EBF20FA07FC16
:1003A00046EA0C062037B6FBF4FCA7EB0507103F26
:1003B00007F01F0BCBF120060CFA0BFB2CFA06F60C
:1003C00044BFB3460026202FA4BF5E464FF0000B6B
:1003D0005BEA060C08BF4FF0010B19EB0B09ABFBF6
:1003E000027C48EB0608C01B06FB02CC0BFB03CCCF
:1003F00071EB0C01C1E70B46024641464846BDE899
:10040000F08B13B54FF000004FF00001AFF3008008
:10041000BDE81C40704710B5203AC0F00B80B1E831
:100420001850203AA0E81850B1E81850A0E8185029
:10043000BFF4F5AF5FEA027C24BFB1E81850A0E832
:10044000185044BF18C918C0BDE810405FEA827C4C
:1004500024BF51F8043B40F8043B08BF7047D20763
:1004600028BF31F8023B48BF11F8012B28BF20F804
:10047000023B48BF00F8012B704702F0FF0343EA3C
:10048000032242EA024200F037B84FF0000200B502
:10049000134694469646203922BFA0E80C50A0E8A7
:1004A0000C50B1F12001BFF4F7AF090728BFA0E855
:1004B0000C5048BF0CC05DF804EB890028BF40F821
:1004C000042B08BF704748BF20F8022B11F0804F63
:1004D00018BF00F8012B704770477047704710B580
:1004E00000F02AF8006810BD10B5044600F024F8AA
:1004F000046010BD4FF000020429C0F0128010F01B
:10050000030C3FF4C4AFCCF1040CBCF1020F18BFD4
:1005100000F8012BA8BF20F8022BA1EB0C01FFF77C
:10052000B6BF5FEAC17C24BF00F8012B00F8012BA5
:1005300048BF00F8012B7047004870475446002020
:1005400000487047544600207546FFF7F9FFAE4655
:1005500005006946534620F00700854618B020B5CF
:10056000FFF7D0FEBDE820404FF000064FF0000737
:100570004FF000084FF0000B21F00701AC46ACE84B
:10058000C009ACE8C009ACE8C009ACE8C0098D46B8
:1005900070470446AFF300802046FFF73EFE0000A0
:1005A00001491820ABBEFEE726000200704700009C
:1005B000B7EE000A80ED100A9FED040A80ED110AE3
:1005C00080ED120A80ED130A704700000000000061
:1005D00010B5B6217E2000F06FF80A2001F012FA63
:1005E00004217D2000F068F80A2001F00BFA0021B8
:1005F0007C2000F061F80A2001F004FA002141207B
:1006000000F05AF80A2001F0FDF90821532000F00B
:1006100053F80A2001F0F6F90421582000F04CF8B4
:10062000BDE810400A2001F0EDB900002DE9FC41C1
:10063000DFF87C8015460E4607460024224610212E
:10064000404601F0F1FA47F080008DF804000122E5
:1006500001A9184802F0B6FB164802F024F8032856
:10066000FAD001226946134802F0ACF9114802F0B1
:100670001AF80428FAD04FF47A77AC4210D23B46ED
:10068000012269460B4802F0EFF80A4802F00BF825
:100690000428FAD09DF800003055641CE4B2ECE761
:1006A00001221021404601F0BFFABDE8FC810000A4
:1006B00000000240C803002013B5114C0022102195
:1006C000204601F0B1FA012269460E4802F07AFB99
:1006D0000C4801F0E8FF0328FAD0012201A90948DB
:1006E00002F070FB074801F0DEFF0328FAD001207A
:1006F00001F088F901221021204601F095FA1CBD75
:1007000000000240C803002010B5B621142000F0FC
:1007100053F81E2001F076F900210F2000F04CF86C
:100720000A2001F06FF90021162000F045F80A2098
:1007300001F068F90121182000F03EF8BDE81040F2
:100740000A2001F05FB900002DE9FC41184E0D466A
:100750000746002422460121304601F065FA47F0A1
:1007600080008DF8000001226946124802F02AFB41
:10077000104801F098FF0328FAD04FF47A773B46EF
:10078000012201A90B4802F06FF80A4801F08BFF23
:100790000428FAD09DF804002855641CE4B2062C05
:1007A000EDD301221146304601F03EFABDE8FC814E
:1007B00000040240C803002013B5104C00220121A0
:1007C000204601F031FA012269460D4802F0FAFA9A
:1007D0000B4801F068FF0328FAD0012201A908485C
:1007E00002F0F0FA064801F05EFF0328FAD0012279
:1007F0001146204601F018FA1CBD0000000402401A
:10080000C80300207CB50546002016460C46009023
:100810000190062269461220FFF708FF9DF80100AB
:100820009DF80010000200B2084300EE100AF8EE36
:10083000C00A9FED550A60EE800AC5ED000A9DF8DA
:1008400003009DF80210000200B2084300EE900A77
:10085000F8EEE00A60EE800AC5ED010A9DF8050099
:100860009DF80410000200B2084300EE900A6946A9
:100870000220F8EEE00A20EE800A85ED020AFFF77A
:1008800063FF9DF801009DF80010000200B20843CC
:1008900000EE100A0222F8EEC00A9FED3C0A60EE5C
:1008A000800AC4ED000A9DF803009DF802100002C2
:1008B00000B2084300EE900AF8EEE00A60EE800A0B
:1008C000C4ED010A9DF805009DF80410000200B275
:1008D000084300EE900A69462220F8EEE00A20EE76
:1008E000800A84ED020AFFF7A1FE9DF800009DF842
:1008F0000110C00040EA5110B0F5806F01DBA0F597
:10090000006005F046FE9FED221B53EC112B05F015
:1009100057FE9FED211B53EC112B05F00BFC05F04E
:10092000D7FB30601E4895ED000AD0ED000A30EE8E
:10093000600A85ED000A95ED010AD0ED010A30EE5E
:10094000600A85ED010A95ED020AD0ED020A30EE4B
:10095000600A85ED020A94ED000AD0ED030A30EE3C
:10096000600A84ED000A94ED010AD0ED040A30EE2D
:10097000600A84ED010A94ED020AD0ED050A30EE1A
:10098000600A84ED020A7CBDE7416B3A58A08B3ABD
:10099000000000000000C03F0000000000003740E1
:1009A0004C440020FEE7000000B58BB00020012180
:1009B000CDE906010590009001900290039004900B
:1009C0000E20CDE908106946054800F081FA0221A1
:1009D000034800F006FA024800F014FE0BB000BD18
:1009E00024030020014800F06EBB00002403002017
:1009F000014800F068BB00002403002000B58BB064
:100A000001220E2100200792CDE9051003900490E9
:100A1000CDE908210090019002906946054800F058
:100A200057FA0221034800F0DCF9024800F0EAFD21
:100A30000BB000BD4C030020014800F044BB000097
:100A40004C030020014800F03EBB00004C03002096
:100A50002DED028B0024104D9FED108A04EB041045
:100A600005EB8000B0EE480A0D49F0EE400A04F0B4
:100A700051FD641CE4B2042CF0D300BF03F0C0FBB2
:100A800004F07EFB0648083803F07AFB04F036FBDE
:100A9000012004F0B5FCF1E79C44002000008046F2
:100AA000B8000020014800F03BBE0000B005002067
:100AB000014800F035BE000020040020014800F08D
:100AC0002FBE000010060020014800F029BE0000E3
:100AD00080040020014800F023BE000070060020C2
:100AE0002DE9F04F85680024099E802D18D0894D8E
:100AF000C563894D456490F83450012D15D001250A
:100B000080F8345090F83550012D10D0002180F835
:100B100034100224002180F834102046BDE8F08F04
:100B20004FF4807141650120F8E70220F6E70225C5
:100B300080F835500025456505682F6847F4802703
:100B40002F6005682B6103685E608368402B036833
:100B50002AD099600168CA60714D704E704FDFF8FD
:100B6000BC81DFF8B891DFF8B8A1DFF8B4B1EA14BE
:100B7000DFF8A8E10168183630379302A9F1480977
:100B80000AF1600A0BF1180BAEF1300E4FF0006C59
:100B900041452DD9A94205D0494503D0514501D041
:100BA000B14205D1202220E09A600268D160D3E7EB
:100BB00059451AD0714518D0594D7835A94214D0ED
:100BC000564D3035A94210D0B9420BD0534A183A8D
:100BD000914207D0524A9032914203D04F4A483254
:100BE000914201D11A4600E062464C494C392EE050
:100BF000DFF82C8108F1A80841452AD9A94205D07F
:100C0000494503D0514501D0B14201D120221CE019
:100C100059451AD0714518D0414D7835A94214D0A4
:100C20003E4D3035A94210D0B9420BD03B4A183A5C
:100C3000914207D03A4A9032914203D0374A483223
:100C4000914201D11A4600E06246344950390A60A7
:100C50005AE0DFF8CC8008F1480841452AD9A9427A
:100C600005D0494503D0514501D0B14201D12022E0
:100C70001CE059451AD0714518D0294D7835A94244
:100C800014D0264D3035A94210D0B9420BD0234A9A
:100C9000183A914207D0224A9032914203D01F4A1B
:100CA0004832914201D11A4600E062461C4910398F
:100CB000CA6029E0A94205D0494503D0514501D079
:100CC000B14201D120221CE059451AD0714518D0FB
:100CD000134D7835A94214D0104D3035A94210D0AB
:100CE000B9420BD00D4A183A914207D00C4A9032C3
:100CF000914203D0094A4832914201D11A4600E09C
:100D00006246074910398A6001680A6842F00102A8
:100D10000A60FFE6BD510008D15100085864024046
:100D20001060024001681823CAB2103AB2FBF3F215
:100D3000054B6FF30901032A9B5CC36500D9091DAC
:100D40008165084670470000DC6A000810B501465E
:100D500000208B698A6A4FF0C07453B1B3F5005F0D
:100D600015D072B1012A0CD0022A0AD0032A09D167
:100D700004E01AB1012A06D0022A03D1C96AC901C6
:100D800000D5012010BDC96AA142FAD010BD002AC9
:100D9000F7D0012AF2D0022AF3D0032AF3D010BDF3
:100DA00030B50468256825F48025256004686360F3
:100DB0008368402B036803D099600068C26030BD2F
:100DC0009A600068C16030BD01680A68D20604D527
:100DD000C968C90601D504F04FBE7047704772B6A6
:100DE000FEE790F82020012A07D0022A05D0416AA8
:100DF00041F48021416201207047006842690A4342
:100E0000426100207047F0B590F820500468A46853
:100E1000012D05D0022D03D0416A41F4802153E019
:100E200014F0406F01D1E5004BD5C4F30164022CEE
:100E300003D9416A41F4000146E00125A5401D6047
:100E40008D684FF4C0739DB1CE6835434E6845EA56
:100E5000C605066803EB0417F5514FF4C275076821
:100E600005EB04150E697E51097D012905D009E0C5
:100E70000E88CD6845EA4655EBE701684E5946F4C1
:100E800080764E511179D2F805504FF4C67641EA7A
:100E90000525016806EB04168D511178D2F8012062
:100EA0004FF4C47541EA0221026805EB0415515163
:100EB000006803EB0411425842F001024250002046
:100EC000F0BD416A41F4001141620120F0BD000013
:100ED00010B590F82020012A07D0022A05D0416AD7
:100EE00041F480214162012010BD3B48D0F800222E
:100EF00042F00102C0F80022D0F8002222F47C5215
:100F0000C0F80022D0F800224B6A42EA0322C0F85F
:100F100000220A7D02F01F0301229A40D0F81C3201
:100F20009343C0F81C32CB69B3B9D0F80C32934369
:100F3000C0F80C328C894B6864F31F434C6900EB9A
:100F4000C404C4F840320C890B6864F31F434C6935
:100F500000EBC404C4F84432CB69012B16D1D0F89D
:100F60000C321343C0F80C320C884B6864F31F43F7
:100F70004C6900EBC404C4F840320C89CB6864F3BC
:100F80001F434C6900EBC404C4F844328B69002B46
:100F9000D0F804320ED01343C0F804320B69002B92
:100FA000D0F8143208D01343C0F81432096A01296A
:100FB00004D008E09343EFE79343F5E7D0F81C1221
:100FC0001143C0F81C12D0F8001221F00101C0F842
:100FD0000012002010BD000000640040704730B5D2
:100FE00090F82040012C05D0022C03D0416A41F436
:100FF00080215DE00468002955D02469A40754D0FD
:101000004FF4D874056804EB01142D5915F004054C
:10101000956005682D594ED0ED08556005682C592E
:1010200004F00204D4604FF4DA74056804EB011490
:101030002D5905F00F05156105682D59C5F30725D4
:10104000956105682C59240C54614FF4DC720468D6
:1010500002EB0112A4581C700468A458240A5C70A6
:101060000468A458240C9C700468A258120EDA700C
:101070004FF4DE72046802EB0112A4581C7104687C
:10108000A458240A5C710468A458240C9C71046858
:10109000A258120EDA71006881B1016941F0200195
:1010A0000161002030BDE468A8E7416A41F4001105
:1010B0004162012030BD6D0D1560AFE7C16841F0A0
:1010C0002001C160EDE72DE9F05F054600680024CE
:1010D0004669D0F804908768D0F80CB0D0F810A01A
:1010E000D0F81880F10748D0F90714D001218160A9
:1010F000B80703D5284600F0B2FA0CE0780702D50D
:101100004FF4006407E0380702D54FF4805402E042
:10111000284600F0A3FAF80516D529684FF4807028
:101120008860B80503D5284600F09BFA0CE07805E6
:1011300002D544F4005407E0380502D544F4804455
:1011400002E0284600F08CFAF80316D529684FF41F
:1011500080308860B80303D5284600F084FA0CE09C
:10116000780302D544F4004407E0380302D544F480
:10117000803402E0284600F075FA300707D55FEAB0
:10118000CB6004D52968102044F40074C86070074F
:101190004FF0080707D55FEA0B7004D52868C760D1
:1011A000284600F0A9F9B00706D52868C06880076E
:1011B00002D0284600F0A2F9700607D55FEACA609F
:1011C00004D52968102044F480640861B00607D56E
:1011D0005FEA0A7004D528680761284600F00EFA15
:1011E000F00606D528680069800702D0284600F07E
:1011F00006FAB00308D55FEAC96005D52968102052
:101200004860284600F0FCF9F00307D55FEA097052
:1012100004D528684760284600F026FA300446D5F1
:101220005FEA497040D5F00504D55FEAC87001D087
:1012300044F00104B00504D55FEA887001D544F09C
:101240000204700504D55FEA487001D544F0040437
:10125000300529D518F0700F26D008F0700040280E
:1012600015D006DC102809D020280AD0302816D145
:101270000AE050280ED0602811D10EE044F0080496
:101280000DE044F010040AE044F0200407E044F0CC
:10129000400404E044F0800401E044F480742868D1
:1012A000816921F070018161296804204860002C67
:1012B00005D0686A204368622846FFF78FFEBDE8C4
:1012C000F09F70B5040003D094F8200010B104E042
:1012D000012070BD204600F081F82068016841F0CF
:1012E0000101016000F0A6FC0546052604E000F0BF
:1012F000A1FC401B0A2811D820684068C007F6D01E
:101300002068016821F00201016000F093FC0546AD
:101310000BE000F08FFC401B0A2806D9606A40F4FD
:101320000030606284F82060D2E72068406880075F
:10133000EFD4207E0128206801683DD021F0800193
:101340000160607E01282068016838D021F04001EA
:101350000160A07E01282068016833D021F02001BF
:101360000160E07E0128206801682ED041F0100164
:101370000160207F01282068016829D021F0080140
:101380000160607F01282068016824D021F00401F9
:101390000160D4E902010843D4E90412114308436F
:1013A0006168491E08432168C8610020606201200D
:1013B00084F82000002070BD41F08001C0E741F0BA
:1013C0004001C5E741F02001CAE721F01001CFE755
:1013D00041F00801D4E741F00401D9E7F0B587B046
:1013E000044614216846FFF750F83E4B3E48DFF8AC
:1013F000F0E01968D4F800C03B4A0325022609270B
:1014000010300024491CF4452AD11960012907D164
:10141000016841F000710160006800F00070059003
:10142000106840F0080010601068CDE9005600F028
:101430000800CDE9047069462C48CDE9024500F06A
:10144000F3FA00220521132000F038FE132000F0EB
:1014500027FE00220521142000F030FE14203AE07F
:10146000DFF88CE0F44538D1D0F800C04CF0806C47
:10147000C0F800C0D0F800C001290CF0806CCDF895
:1014800014C0196007D1016841F000710160006863
:1014900000F000700590106840F0020010601068C5
:1014A00002AB00F0020005906020CDE9000683E861
:1014B000B00069460F4800F0B7FA002205213F202E
:1014C00000F0FCFD3F2000F0EBFD00220521402054
:1014D00000F0F4FD402000F0E3FD07B0F0BD000097
:1014E000006400400C00002030380240000C024034
:1014F00000680040000402407047000030B5054617
:10150000006838498BB0884234D16B4603AA002169
:101510002846FFF764FD039833282BD1BDF800005F
:101520003149C0F30A0008809DF80100C2089DF807
:10153000020042EA4012C2F30A024A809DF80320E8
:10154000800940EA82029DF8040042EA8022C2F348
:101550000A028A8042089DF8050042EAC012C2F3DE
:101560000A02CA80C0F301128A728009C872BDF8EB
:10157000060088811D4928681D4C884224D101AB92
:1015800003AA00212846FFF72AFD0398A0F20120B4
:10159000072819D210F0FF01BDF8040001EB410348
:1015A00042BA144800EB83008280BDF8062052BA8C
:1015B000C280BDF8082052BA02819DF80A208272CA
:1015C00002D12088401C20802088B0F5FA7F06D107
:1015D000002020804FF48051074800F01DFB0BB025
:1015E00030BD0000006400403C4600200068004020
:1015F000C4000020AC450020001C0240704770472A
:101600007047000070B5044690F82000012804D00F
:10161000606A40F40020606218E0022084F8200034
:101620002068016821F00101016000F003FB05461C
:101630000EE000BF00F0FEFA401B0A2808D9606ADD
:1016400040F400306062052084F82000012070BD65
:1016500020684068C007EDD1606270BD7047704778
:10166000704770477047704770472DE9F041044656
:10167000876D00F0DFFA064694F835000025022851
:1016800006D08020606584F834500120BDE8F081E8
:101690002068016821F0160101602068416921F08D
:1016A00080014161206C08B9A06C20B120680168FC
:1016B00021F0080101602068016821F0010101604A
:1016C0000CE000F0B7FA801B052807D920206065E0
:1016D000032084F8350084F83450D7E72068006888
:1016E000C007EED194F85C103F208840B86001201C
:1016F00084F8350084F834500020C7E790F835109E
:10170000022903D08021416501207047052180F81E
:1017100035100068016821F0010101600020704768
:101720002DE9F84304464FF00009CDF800906348D6
:101730004FF41651A56D0068B0FBF1F72E6894F8D0
:101740005C10082000FA01F131420FD021680A68CC
:1017500052070BD50A6822F004020A6094F85C1064
:101760008840A860606D40F00100606594F85C10EE
:101770004FF0010808FA01F0304208D021684969A9
:10178000090604D5A860606D40F00200606594F819
:101790005C1004208840304208D02168096889071D
:1017A00004D5A860606D40F00400606594F85C109A
:1017B00010208840304218D021680968090714D5E4
:1017C000A86020680168490304D50068000308D5B3
:1017D000A16C07E00168C90503D4016821F0080184
:1017E0000160216C09B12046884794F85C102020E4
:1017F0008840304231D021680968C9062DD5A860DB
:1018000094F8350005282068016806D0490347D5BB
:10181000006800031DD4616C1CE021F0160101601A
:101820002068416921F080014161206C08B9A06CF9
:1018300020B12068016821F00801016094F85C1073
:101840003F208840A86084F8358084F83490216D6A
:101850001FE0E16B09B120468847606D00282BD05E
:10186000606DC00714D0052084F835002068016839
:1018700021F0010101600098401C0090B84203D89B
:1018800020680068C007F6D184F8358084F8349069
:10189000E16C002910D001B02046BDE8F0430847B4
:1018A0000168C905D5D4016821F01001016084F8F0
:1018B000358084F83490CCE7BDE8F8831C00002024
:1018C0002DE9F041044600F0B5F906465CB102206E
:1018D00084F83500002584F834502068016821F030
:1018E000010101600DE00120BDE8F08100F0A2F9E6
:1018F000801B052805D920206065032084F8350069
:10190000F2E720680068C007F0D12268116820481B
:101910000140D4E901031843D4E9033633431843A3
:1019200063691843A3691843E3691843236A18439A
:101930000843616A042903D1D4E90B13194308430E
:10194000106020684069666A20F0070130460E4347
:10195000012704280CD1A06A0643E06A40B1204662
:10196000FFF7F4F920B14020606584F83570BAE7DC
:10197000206846612046FFF7D5F994F85C203F21A6
:1019800091408160656584F835700020ACE7000007
:101990003F8010F02DE9F0410446866D90F8340048
:1019A000002501280DD0012084F8340094F835700A
:1019B0000020012F07D084F8340002252846BDE816
:1019C000F0810220FBE7022784F83570606520462D
:1019D000FFF7E6F994F85C103F208840B06020687B
:1019E000016841F016010160206C20B12068016897
:1019F00041F0080101602068016841F001010160C7
:101A0000DCE7000070B5044600F014F90546601CE0
:101A100002D004480078044400F00CF9401BA042B6
:101A2000FAD370BD100000202DE9F84FDFF8BCA1FB
:101A30000022012503264FF00F090AF1040BAAF139
:101A4000040E00BF0B6805FA02F42340A34270D1D4
:101A50000F7907F00307012F01D0022F16D18768F5
:101A60004FEA420806FA08FC27EA0C07D1F80CC036
:101A70000CFA08FC4CEA070CC0F808C04768A743FA
:101A80000C79C4F3001494403C4344600C79E44363
:101A9000A4070AD0C4684FEA420C06FA0CF7BC430C
:101AA0008F6807FA0CF72743C7600C7904F003042A
:101AB000022C12D1D40800EB840CDCF8204057072C
:101AC000FF0E09FA07F824EA0804D1F8108008FA92
:101AD00007F848EA0408CCF8208004684FEA420C72
:101AE00006FA0CF7BC430F7907F0030707FA0CF767
:101AF000274307604C6814F4403F70D03C4C276883
:101B000047F480472760246822F0030704F48044E8
:101B10000094384C07EB040CDCF8084897074FEAB0
:101B2000177809FA08F7BC43334FB84202D10027AF
:101B300024E054E0314FB84201D101271EE0304F7C
:101B4000B84201D1022719E02E4FB84201D1032734
:101B500014E02D4FB84201D104270FE02B4FB842BB
:101B600001D105270AE02A4FB84201D1062705E036
:101B7000284FB84201D1072700E0082707FA08F7E5
:101B80002743CCF80878DAF800405746D1F804C06B
:101B90009C435FEACC2C00D51C433C60DBF8004042
:101BA0005F46D1F804C09C435FEA8C2C00D51C43EF
:101BB0003C60DEF800407746D1F804C09C435FEA01
:101BC0008C3C00D51C433C60084F083F3C68D1F872
:101BD00004C09C435FEACC3C00D51C433C60521CD3
:101BE000102AFFF42FAFBDE8F88F0000083C014039
:101BF000443802400030014000000240000402402E
:101C000000080240000C0240001002400014024094
:101C100000180240001C0240426921EA02030A4007
:101C200043EA0241816170470AB18161704709044A
:101C3000FBE70000014880687047000010000020AA
:101C400070B5040025D094F83D00002520B984F833
:101C50003C50204600F050F9242084F83D002068D4
:101C6000016821F0010101602068016841F4004130
:101C700001602068016821F40041016000F00AFB66
:101C80004D4A6168914201D84C4900E04C49884274
:101C900001D2012070BD4B492368B0FBF1F15E68B1
:101CA00026F03F060E435E606368934206D94FF408
:101CB000967359434FF47A73B1FBF3F12368491CCF
:101CC0001E6A26F03F06314319626168914210D8BE
:101CD0004900401EB0FBF1F2521CC2F30B02042A71
:101CE00001D2042022E0B0FBF1F0401CC0F30B0055
:101CF0001CE0A268F2B301EBC10303EB0116431E23
:101D0000B3FBF6F35B1C43F480431B0549D092B34D
:101D100001EBC10202EB0111401EB0FBF1F0401CCF
:101D2000C0F30B0040F4804040F400402168CA69D1
:101D30004CF6FF739A431043C861D4E9071001437E
:101D40002068026822F0C00211430160D4E9030157
:101D500001432068826848F2FF339A43114381604F
:101D6000D4E9050108432168CA6822F0FF02104344
:101D7000C86001E00EE016E02068016841F0010152
:101D800001602564202084F83D00256384F83E50DE
:101D9000002070BD01EB4106431EB3FBF6F35B1C54
:101DA000B3E70120C2E701EB4101401EB0FBF1F0B7
:101DB000401CC0F30B00B7E7A086010080841E0022
:101DC00000093D0040420F002DE9FF4F83B09A46C5
:101DD000DDE9119793460446DDF84080FFF72AFFBE
:101DE000054694F83D0020287FD11923012240495F
:101DF0002046009501F070FD002876D194F83C0053
:101E0000012872D0012084F83C0020680168C907CD
:101E100003D1016841F0010101602068016821F4EB
:101E200000610160212084F83D00402084F83E00DC
:101E300000262664C4F82480A4F82A90608D2085AA
:101E40002C48E062CDE9007553465A462046049975
:101E500001F0C8FC70B930E02A463946204601F04E
:101E6000BAFD58B1206C042804D12068016841F4FF
:101E700000710160012007B0BDE8F08F606A216841
:101E800000780861606A401C6062218D491E89B239
:101E90002185628D521E628522685369DB435B0790
:101EA0000BD469B100781061606A401C6062208DBB
:101EB000401E2085608D401E6085208D0028CBD17E
:101EC0002A463946204601F0E1FC0028CAD154F8E0
:101ED0003D0B016841F400710160202004F81E09E7
:101EE000E67766770020C6E7FFE70220C3E7000039
:101EF000020010000000FFFFF0B587B00446142177
:101F00006846FEF7C2FA1D492068884233D11C4852
:101F10000024016841F004010160016801F004013E
:101F20000591016841F0010101600068122500F08F
:101F3000010005904FF40070CDE9000502AA0326C8
:101F4000042782E8D00069460E48FFF76DFDB8010E
:101F5000CDE9000502AA694682E8D0000A48FFF7E9
:101F600063FD07481030016841F40001016000681A
:101F700000F40000059007B0F0BD0000005C0040D8
:101F800030380240000802400000024002488168E8
:101F90000278114481607047100000200B4810B592
:101FA000016841F400710160016841F480610160E1
:101FB000016841F480710160032000F09FF80F2058
:101FC00000F006F800F050F8002010BD003C024080
:101FD00030B505461F4887B00024016841F0020172
:101FE0000160006806A900F00200009001A800F05E
:101FF00031F90498A8B100F04DF940001649174A8C
:10200000B0FBF1F11648491E026040F2E732C0E928
:102010000324C0E90114846100F046FF040003D0EA
:1020200015E000F037F9E9E70D4800F07FFF040004
:102030000DD11D2000F034F8102D07D200222946C2
:102040001D2000F03BF80748056000E0012407B0C0
:10205000204630BD4038024040420F00000400409E
:10206000D0060020140000200C4882B0016841F422
:1020700080410160006800F4804000900748001F24
:10208000016841F0805101600068002200F080503A
:1020900000900F21901E02B000F010B844380240AA
:1020A000002809DB00F01F02012191404009800057
:1020B00000F1E020C0F8001170470000F0B40E4BB2
:1020C0001B680C46C3F30223C3F10705042D00D996
:1020D0000425191D072901D2002300E0DB1E01267B
:1020E00006FA05F1491E214099409E40761E164091
:1020F0003143F0BC02F00CBE0CED00E0064900F0EC
:10210000070208684FF6FF03184040EA0220034A1E
:1021100010430860704700000CED00E00000FA0575
:102120002DE9F0470E46050065D0DFF81481D8F898
:102130000000F7B200F00700B04207D288F8007044
:10214000D8F8000000F00700B04254D128683D4C98
:10215000810712D5400703D5206840F4E050206085
:102160002878000703D5206840F46040206020688C
:10217000A96820F0F000084320602878C0072DD01F
:10218000304968680839012812D0022813D0032882
:1021900011D00968890700292DDA216821F003018F
:1021A00001432160FFF746FD814641F2883A0EE087
:1021B00009688903EFE709688901ECE7FFF73AFD51
:1021C000A0EB0901514502D90320BDE8F087206842
:1021D000696800F00C00B0EB810FEFD1D8F8001067
:1021E000404601F00701B14207D90770006800F0CE
:1021F0000700B04201D00120E7E72878400705D565
:102200002068E96820F4E05008432060287800073F
:1022100006D52068296920F4604040EAC1002060AA
:1022200000F058F82168084AC1F30311515CC84016
:102230000649086006480068FFF7CAFE0020C4E7A8
:10224000003C024008380240E46A00081C000020FC
:10225000140000200F2202600C4A136803F00303ED
:102260004360136803F0F0038360136803F4E053E2
:10227000C36012684FF4E05303EAD20202610448DB
:10228000006800F00700086070470000083802404E
:10229000003C02400448054900680968044AC1F34B
:1022A0008221515CC84070471C0000200838024061
:1022B000F46A00080448054900680968044AC1F343
:1022C0004231515CC84070471C0000200838024071
:1022D000F46A0008154810B5006810F00C021448A4
:1022E00013D01449042A0FD0082A0ED10F4C241FF2
:1022F0002268236802F03F025B0207D52068C0F322
:102300008810A0FB010106E0084610BD2168C1F35A
:102310008811A1FB00010023FEF706F82168C1F334
:102320000141491C4900B0FBF1F010BD08380240E2
:102330000024F400001BB7002DE9F84F04006ED014
:102340002078DFF84C93C007A9F104054AD009F1C1
:1023500004000168C1F38101012908D00068C0F3BD
:10236000810002280AD1D9F80000400206D5286869
:10237000800337D560680028E1D033E06068B0F5AD
:10238000803F10D0B0F5A02F286810D020F4803006
:102390002860286820F4802028606068A8B1FFF7D2
:1023A00049FC06460DE0286840F48030F4E740F42C
:1023B00080202860F7E700BFFFF73CFC801B642803
:1023C00073D828688003F7D50CE0FFF733FC064686
:1023D00005E000BFFFF72EFC801B6428F0D82868BA
:1023E0008003F7D42078DFF8AC8280074FF0000A32
:1023F0003ED5A748001D016811F00C0F08D00068F9
:10240000C0F3810002280BD1D9F80000400207D4A4
:102410002868800716D5E068012800D112E033E172
:10242000E068B8B10120C8F80000FFF703FC0646D9
:1024300005E000BFFFF7FEFB801B0228C0D828681C
:102440008007F7D52868216920F0F80040EAC1002C
:1024500028600DE0C8F800A0FFF7ECFB064604E09A
:10246000FFF7E8FB801B02281FD828688007F7D4F5
:102470002078000722D5864F87486169703771B18F
:1024800001210160FFF7D6FB064604E0FFF7D2FB0F
:10249000801B022809D838688007F7D50EE0C0F8FD
:1024A00000A0FFF7C7FB064605E082E0FFF7C2FB8E
:1024B000801B02287DD838688007F7D42078400731
:1024C00068D5DFF8CCB100270BF13C0BDBF800003E
:1024D000C0000BD4DBF8001041F08051CBF80010A5
:1024E000DBF80000012700F0805000906B4E306850
:1024F000C00510D4306840F480703060FFF79AFB5C
:10250000009005E0FFF796FB0099401A022850D88A
:102510003068C005F6D55E4EA0686C3601280FD035
:102520000528306810D020F001003060306820F0BD
:1025300004003060A068B8B1FFF77CFB00900FE0AA
:10254000306840F00100F4E740F004003060F7E745
:10255000FFF770FB0099411A41F28830814266D83A
:1025600030688007F4D50EE0FFF764FB009007E0C9
:10257000FFF760FB0099411A41F28830814256D83A
:1025800030688007F4D42FB1DBF8001021F08051BF
:10259000CBF80010A069C8B33D49091D0968C1F313
:1025A000810102294AD00228504607D0C8F86000AD
:1025B00000E03CE0FFF73EFB04463BE04746C8F83E
:1025C0006000FFF737FB064605E000BFFFF732FB70
:1025D000801B02282BD828688001F7D4D4E9070192
:1025E0000843A16A2E4A490802EB0141626A41EAA6
:1025F0008211084394F82C1040EA0161C9F80010D8
:1026000001203866FFF716FB044606E03EE000BFF7
:10261000FFF710FB001B022809D828688001F7D5B6
:1026200034E000BFFFF706FB001B022802D903209D
:10263000BDE8F88F28688001F4D427E00128F7D09E
:10264000D9F80000E26900F4800191421CD1226AAD
:1026500000F03F01914217D147F6C071626A014014
:10266000B1EB821F10D1A26A4FF0FF3300F440316A
:1026700003EB5202B1EB024F06D194F82C1000F09C
:102680007060B0EB016F01D00120D1E70020CFE7EF
:102690000438024000004742800E4742007000406C
:1026A0000000FFFF704790F85100704770B50400BC
:1026B00009D0606A002540B125616561A56294F882
:1026C000510040B10CE0012070BD6068B0F5827F20
:1026D000F4D0E561F2E784F85050204600F044F869
:1026E000022084F851002068016821F04001016057
:1026F000A088218900F4827001F404410843A18973
:1027000001F400610843217C01F002010843217DAE
:1027100001F001010843218B01F400710843217F7E
:1027200001F03801084394F8201001F080010843BB
:10273000218D01F40051084321680860A06904213B
:1027400001EA104094F8241001F0100108432168B8
:1027500048602068C16921F40061C161656501209C
:1027600084F85100002070BD2DE9F04186B0064686
:1027700014216846FDF789FE35493068884264D1E6
:1027800034480024016841F480510160006800F47D
:10279000805005902F481438016841F00201016013
:1027A000016801F002010591016841F00101016039
:1027B0000068022500F0010005901820CDE9000511
:1027C00002AA03274FF0050882E8900169462248D3
:1027D000FFF72AF98020CDE9000502AA694682E8C0
:1027E00090011E48FFF720F91E4D1D487F06286006
:1027F000C5E901744FF48068C5E903486C6178123B
:10280000AC61C5E9074028466C62FFF759F808B18A
:10281000FEF7E5FAF564AE63124D114860354830B5
:10282000E5E802074020A5E81101C00245F8144977
:10283000AC61C5E907400B486C626030FFF740F8B7
:1028400008B1FEF7CCFAB564AE6306B0BDE8F0811E
:1028500000300140443802400004024000000240C1
:1028600010640240200400202DE9F84F044640681F
:102870000025984616460F464FF0040BB0F5827FB0
:1028800001D1A06888B194F85000012818D0012027
:1028900084F85000FFF7CEF9814694F851004FF0CC
:1028A000000A01280ED0022582E084F851B01346B8
:1028B0000A462046CDF8008000F000F9BDE8F88F08
:1028C0000220FBE7002F72D0002E70D084F851B0A8
:1028D000C4F854A0A763A687E687C4F830A0A4F87C
:1028E00034A0A4F836A0C4F840A0C4F844A0A0685E
:1028F000B0F5004F09D12068016821F04001016066
:102900002068016821F4804101602068016849065F
:1029100003D4016841F040010160E068D8B139E0BA
:1029200020688168C90709D0007BA16B0870A06B83
:10293000401CA063E08F401EE0870CE0FFF77AF9AF
:10294000A0EB0901414503D3B8F1FF3F03D036E0C6
:10295000B8F1000F33D0E08F0028E1D11DE02068EE
:102960008168C90709D0C068A16B0880A06B801C72
:10297000A063E08F401EE0870CE0FFF75BF9A0EB5F
:102980000901414503D3B8F1FF3F03D017E0B8F187
:10299000000F14D0E08F0028E1D14A46414620467E
:1029A00001F08EFD08B120206065606D00B1012549
:1029B000012084F8510084F850A028467EE70325C2
:1029C000F6E700002DE9F041044600268068042364
:1029D00018B96568B5F5827F0ED094F85050012D76
:1029E00013D0012784F8507094F851C00025BCF131
:1029F000010F0DD0022654E084F851302046BDE886
:102A0000F04113460A4600F04BB90220BDE8F081C0
:102A100071B16AB184F851306565A163A287E2871C
:102A200025646564A586E586B0F5004F02D00BE00D
:102A3000012636E02068016821F04001016020682D
:102A4000016821F480410160E16C18480864E16C80
:102A50001748C863E16C1748C864E06C0565E38FEC
:102A60002168A26B0C31E06CFEF794FF38B1606D09
:102A700040F010006065012684F8517011E0206874
:102A80000168490603D4016841F0400101602068F3
:102A9000416841F0200141602068416841F0010136
:102AA000416084F850503046B0E700007B43000896
:102AB0009943000859430008704770472DE9F84FC3
:102AC000044690F8500000270A9E1D4692468B4609
:102AD0004FF0010901280ED0012084F85000FFF7C3
:102AE000A9F8804694F85100616801280CD0B1F52E
:102AF000827F07D102E00220BDE8F88FA16809B902
:102B0000042801D00227C2E0BBF1000F27D0BAF1A0
:102B1000000F24D01DB394F85100042802D00520E2
:102B200084F8510000206065C4F838A0E587A587C7
:102B3000C4F830B0E586A58620646064206801682A
:102B4000490603D4016841F040010160E068B0F536
:102B5000006F606805D0E8B3012D46D07FE0012703
:102B600095E008B1012D39D1206B21680088C8603B
:102B7000206B801C2063E08E401EE0862EE02068E3
:102B8000816889070FD5E18E69B1B9F1010F0AD1CA
:102B9000216B0988C160206B801C2063E08E401E81
:102BA000E0864FF0000920688168C9070CD0E18FEA
:102BB00051B1C068A16B0880A06B801CA063E08F3E
:102BC000401EE0874FF00109FFF734F8A0EB080042
:102BD000B04200E009E001D3701C50D1E08E002823
:102BE000CDD1E08F0028CAD13FE0206B216800786A
:102BF0000873206B401C2063E08E401EE0862EE0B0
:102C00002068816889070FD5E18E69B1B9F1010F9C
:102C10000AD1216B09780173206B401C2063E08E80
:102C2000401EE0864FF0000920688168C9070CD07B
:102C3000E18F51B1C068A16B0870A06B401CA0630C
:102C4000E08F401EE0874FF00109FEF7F3FFA0EB95
:102C50000800B04202D3701C01D010E07EB1E08EBB
:102C60000028CDD1E08F0028CAD142463146204607
:102C700001F054FC28B101272020606507E00327FC
:102C800005E0A06818B92068C1688068009001203C
:102C900084F85100002084F8500038462CE70000EA
:102CA0002DE9F041044690F85000002601280DD08F
:102CB000012784F8507094F851000025D4F804C01E
:102CC00001280FD0BCF5827F0AD102E00220BDE8C6
:102CD000F081D4F808C0BCF1000F01D1042801D064
:102CE000022660E049B342B33BB394F85100042894
:102CF00002D0052084F8510065652163A386E38630
:102D0000A263A387E3872564656494F851000428CF
:102D100015D0E16C264808642648E16CC863E16C74
:102D20002548C864E06C0565E38F2168A26B0C310F
:102D3000E06CFEF72FFEE0B906E0012633E0E16C1F
:102D40001E4808641E48E8E72068416841F0010118
:102D50004160A06C0564A06CC563A06CC564A06CE8
:102D60000565E38E2268216B0C32A06CFEF712FE23
:102D700038B1606D40F010006065012684F8517034
:102D800011E020680168490603D4016841F0400160
:102D900001602068416841F020014160206841687D
:102DA00041F00201416084F8505030468FE7000046
:102DB0008F43000867440008594300087B4300081C
:102DC000994300082DE9F041044690F85000002690
:102DD000012809D0012784F8507094F8510000258B
:102DE000012804D002264EE00220BDE8F08189B11E
:102DF00082B1032084F8510065652163A286E286D2
:102E0000A56365642564A587E587A068B0F5004FD4
:102E100002D00BE0012636E02068016821F0400175
:102E200001602068016841F480410160A16C18488C
:102E30000864A16C1748C863A16C1748C864A06CEB
:102E40000565E38E2268216B0C32A06CFEF7A2FDB3
:102E500038B1606D40F010006065012684F8517053
:102E600011E020680168490603D4016841F040017F
:102E700001602068416841F020014160206841689C
:102E800041F00201416084F850503046ADE7000047
:102E90008543000803440008594300087047704701
:102EA000704770477047704710B5040003D094F81E
:102EB0003D0010B107E0012010BD002084F83C0067
:102EC000204600F01FF8022084F83D00211D2068F4
:102ED00001F01EFC012084F8460084F83E0084F8CE
:102EE0003F0084F8400084F8410084F8420084F8F0
:102EF000430084F8440084F8450084F83D00002035
:102F000010BD000008B500680649884208D106488F
:102F1000016841F400310160006800F40030009065
:102F200008BD0000004401404438024090F83D10C4
:102F3000012901D001207047022180F83D1001686D
:102F4000CA6842F00102CA6000681149884214D080
:102F5000B0F1804F11D00F4988420ED00E498842FF
:102F60000BD00E49884208D00D49884205D00D4942
:102F7000884202D00C49884204D1816801F00701DF
:102F8000062903D0016841F001010160002070476B
:102F9000000001400004004000080040000C004018
:102FA000000401400040014000180040704770B527
:102FB0000446006801694FF00005C943890715D42C
:102FC000C168C943890711D4E91E01610120207736
:102FD000206880698007204602D0FFF7E7FF04E001
:102FE00000F0C2F8204600F054F925772068016906
:102FF000C943490717D4C168C943490713D46FF0BF
:1030000004010161022020772068806910F4407F6C
:10301000204602D0FFF7CAFF04E000F0A5F82046E2
:1030200000F037F9257720680169C943090716D4EC
:10303000C168C943090712D46FF008010161042077
:1030400020772068C0698007204602D0FFF7AEFFD6
:1030500004E000F089F8204600F01BF9257720688D
:103060000169C943C90617D4C168C943C90613D445
:103070006FF010010161082020772068C06910F40A
:10308000407F204602D0FFF791FF04E000F06CF88B
:10309000204600F0FEF8257720680169C943C9077A
:1030A00008D1C168C943C90704D1891E01612046FE
:1030B00000F054F920680169C943090609D4C168C0
:1030C000C943090605D46FF0800101612046FFF76E
:1030D000E9FE20680169C943490609D4C168C943AA
:1030E000490605D46FF040010161204600F040F927
:1030F00020680169C94389060BD4C168C9438906A0
:1031000007D46FF0200101612046BDE87040FFF751
:10311000CABE70BD10B586B0044614216846FDF7DE
:10312000B4F90E492068884215D10D48016841F074
:10313000200101600068012100F02000059040207E
:1031400000900220CDE9010103900320049069461C
:103150000448FEF769FC06B010BD000000440140C1
:103160003038024000140240704770B5044690F8B1
:103170003C0000260D4601280FD0012084F83C00B9
:103180006AB1042A1DD0082A2FD00C2A3FD001266C
:10319000002084F83C00304670BD022070BD2068DD
:1031A00001F028FB2068816941F0080181612068F5
:1031B000816921F004018161206881692A691143D4
:1031C00011E0206801F046FB2068816941F400614C
:1031D00081612068816921F4806181612068816951
:1031E0002A6941EA02218161D2E7206801F068FB87
:1031F0002068C16941F00801C1612068C16921F0FE
:103200000401C1612068C1692A69114311E0206885
:1032100001F08AFB2068C16941F40061C161206846
:10322000C16921F48061C1612068C1692A6941EAEC
:103230000221C161ACE710B5040003D094F83D0051
:1032400010B107E0012010BD002084F83C002046AA
:1032500000F01EF8022084F83D00211D206801F0D6
:1032600057FA012084F8460084F83E0084F83F00B5
:1032700084F8400084F8410084F8420084F8430058
:1032800084F8440084F8450084F83D00002010BD17
:103290007047704710B50446022249B104290ED088
:1032A000082913D094F84100012816D0012010BD40
:1032B00094F83E000128F9D184F83E200FE094F8FC
:1032C0003F000128F2D184F83F2008E094F8400044
:1032D0000128EBD184F8402001E084F8412001224C
:1032E000206801F079FA16492068164A884201D010
:1032F000904203D1436C43F4004343642068884206
:1033000013D0B0F1804F10D00F4988420DD00F4933
:1033100088420AD00E49884207D0904205D00D4914
:10332000884202D00C49884204D1816801F007012B
:10333000062903D0016841F001010160002010BDA1
:10334000000001400004014000040040000800406B
:10335000000C004000400140001800400068034994
:10336000884201D1FEF712BE704700000004004001
:103370007047704770470000F8B501680446086858
:10338000CA684B6910F00F0F4FF000055AD003F0D8
:10339000010602F49077374365D0C10705D0D10507
:1033A00003D5216C41F001012164410705D5D907FE
:1033B00003D0216C41F002012164810705D5D907B2
:1033C00003D0216C41F004012164010707D502F00C
:1033D0002001314303D0216C41F008012164216CAC
:1033E00000293BD0800604D5900602D5204601F086
:1033F000F2FA20684069216CC0F3801001F00801E6
:10340000014320462BD001F0BFFA206840694006F6
:1034100021D52068143050E8001F21F0400140E819
:103420000012002AF5D1A06BA8B16C490165A06B10
:10343000FEF764F9002811D0A06B016D01B0BDE862
:10344000F040084783060ED593060CD52046BDE80C
:10345000F84001F0C0BA2046FFF78CFFF8BDFFF737
:1034600089FF2564F8BD266B2023012E79D1C6067D
:1034700077D5D60675D50868486800904869400633
:1034800040D5A16B086840680004000CEAD0A28D0A
:103490008242E7D9E085C869B0F5807F2DD02068E9
:1034A0000C3050E8001F21F4807140E80012002A1F
:1034B000F5D12068143050E8001F21F0010140E8E8
:1034C0000012002AF5D12068143050E8001F21F0C6
:1034D000400140E80012002AF5D184F83E3025630F
:1034E00020680C3050E8001F21F0100140E8001265
:1034F000002AF5D1A06BFEF7B8F8A08DE18D401A37
:1035000081B229E0A08DE18D401A81B2E08D0028C2
:10351000A8D00029A6D020680C3050E8002F22F453
:10352000907240E80026002EF5D12068143050E853
:10353000002F22F0010240E80026002EF5D184F889
:103540003E30256320680C3050E8002F22F0100236
:1035500040E80023002BF5D12046FFF70AFFF8BD15
:10356000FFE705062BD5150629D594F83D0021283F
:10357000F5D1A068B0F5805F01D12069B0B1206AB3
:10358000411C2162216800784860E08C401E0004E4
:10359000000CE084E3D12068C16821F08001C160A3
:1035A0002068C16841F04001C160D8E7206A008806
:1035B000C0F308004860206A801C2062E5E74006EE
:1035C000CDD55006CBD5CA68204622F04002CA604D
:1035D00084F83D3000F0EDF8C1E7000079490008BB
:1035E00070B5040004D094F83D00002510B106E049
:1035F000012070BD84F83C50204600F023F82420C0
:1036000084F83D002068C16821F40051C160204663
:1036100001F042FA2068016921F4904101612068BB
:10362000416921F02A0141612068C16841F40051DB
:10363000C1602564202084F83D0084F83E0000200D
:1036400070BD00002DE9F04387B00646142168469E
:10365000FCF71BFF4F484E4D316802220323002424
:1036600007154FF44038A94238D14A4910310D6846
:1036700045F480250D60096801F4802105910168F9
:1036800041F0040101600068694600F00400059003
:1036900098028DE815000720CDE903303E48FEF77B
:1036A000C3F93F4D3D4828607804C5E90104C5E9E8
:1036B0000347C0146C61C5E90640C5E90884284683
:1036C000FEF7FEF808B1FDF78AFBB563002205217D
:1036D0002720AE63FEF7F2FC272053E0314DA942CC
:1036E00052D12C4914310D6845F020050D60096850
:1036F00001F020010591016841F04001016000687E
:10370000694600F0400005904FF484408DE81500B4
:103710000820CDE903302448FEF786F9204D2348E0
:1037200060354FF020692860C5E90194C5E9034779
:103730006C61AC61C5E9074828466C62FEF7C0F8C9
:1037400008B1FDF74CFBB563AE63154D1748C035A6
:103750007830E5E80209402091C5114845F8144940
:10376000C030AC61C5E907486C62FEF7A9F808B142
:10377000FDF735FB7563002205214720AE63FEF798
:103780009DFC4720FEF78CFC07B0BDE8F0830000ED
:1037900000480040303802400008024028600240E3
:1037A000B0050020001401400018024028640240C7
:1037B00070477047FEE701684A69D24352050FD44B
:1037C0006FF480624A61002140F8301F202242736A
:1037D0008173026942F004020261017301207047A3
:1037E000002070472DE9F843044600680D46DDE9E6
:1037F000089701689846164641F4807101604B466F
:1038000000224FF001112046009700F065F848B102
:1038100020680068C00502D54FF4007020640320C2
:10382000BDE8F883216805F0FE0008613B464A4682
:103830001549204600F084F888B9206841698069FC
:1038400000903A464946204600F0C5F848B1206C41
:10385000042804D12068016841F40071016001204E
:10386000DEE7F5B2B8F1010F09D02168300A08612E
:103870003A464946204600F0AEF80028E7D12068D5
:1038800005610020CCE700000200010070B516467B
:103890000D4604460DE02046FFF78DFF08B10120DC
:1038A00070BD681C05D0FEF7C5F9801BA84207D87B
:1038B00035B120684069C0434007ECD4002070BD9A
:1038C000002044F8300F20216173A073216941F07A
:1038D000200121612073E2E72DE9F0471E46904662
:1038E0000D460446C1F30747DDF8209008E0701C40
:1038F00006D0FEF79FF9A0EB0900B0420FD876B1D1
:103900002068012F18D0806925EA00000004000C0F
:1039100014D000214145EAD00020BDE8F087002006
:1039200044F8300F20216173A073216941F0200118
:10393000216120730120F0E74069E5E70121E9E713
:103940002DE9F0479A4691460E46044600254FF071
:103950002008C1F3074725E020684069C0434005BF
:1039600014D42068016841F40071016021686FF48B
:1039700080604861256384F83D8084F83E50206C67
:1039800040F00400206484F83C501FE0B9F1FF3F90
:1039900008D0FEF74FF9A0EB0A0149450CD8B9F160
:1039A000000F09D02068012F13D0806926EA00009B
:1039B0000004000C0BD0CFE744F8305F84F80D8092
:1039C000A573206940F02000206125730120BDE827
:1039D000F0874069EAE770B516460D4604460DE0EB
:1039E0002046FFF7E8FE08B1012070BD681C05D035
:1039F000FEF720F9801BA84207D835B1206840693E
:103A0000C0430006ECD4002070BD002044F8300F05
:103A100020216173A073216941F02001216120738D
:103A2000E2E700002DE9F047384C00252DED088B2A
:103A300004F1240904F1280804F1180640F6B83707
:103A40009FED33BB4A4641463046FCF7DBFE94ED22
:103A50000A0A79EE809A94ED0B0A3AEE00AA94EDE8
:103A60000C0A7AEE80AA94ED060A78EE808A94ED2C
:103A7000070A39EE009A94ED080A38EE000A10EEB3
:103A8000100A02F085FF53EC1B2B02F097FE02F0A8
:103A90001FFB08EE100ABD4233D100EE105AB8EEFB
:103AA000C00AC9EE800A00EE105AB8EEC00AC4ED92
:103AB000030ACAEE000A00EE105AB8EEC00AC4EDBE
:103AC000040ACAEE800A00EE105AB8EEC00AC4ED2D
:103AD000050AC8EE800A00EE105AB8EEC00AC4ED1E
:103AE000000AC9EE000A00EE105AB8EEC00AC4ED92
:103AF000010AC8EE000AC4ED020ABDEC088BBDE85D
:103B0000F0876D1CBD429DDDF7E700004C440020AE
:103B100014AE47E17A94234008B5072001F070FC09
:103B2000FCF756FDFCF7F0FD01F0FEFBFFF77AFF16
:103B30001848FCF73DFD174C174F04F1240004F121
:103B4000280B04F1180A04F13C0904F1380804F1C7
:103B5000340604F14005009059465046009AFCF79F
:103B600051FE04F12801284691EC030A1039D1ECEA
:103B7000031A00F011FA4B4642463146284601F03E
:103B800031FB002001F0B4FFF861012001F038FCA6
:103B9000E2E700004C440020880000200F4810B5E8
:103BA0000D4901600321416000214FF41022816022
:103BB000C0E903124FF4001242610176417681762A
:103BC000C17601774177FDF77CFB002803D0BDE883
:103BD0001040FDF704B910BD00640040240300202C
:103BE0000F4810B50D4901600321416000214FF4D9
:103BF00010228160C0E903124FF400124261017685
:103C000041768176C17601774177FDF75AFB00282E
:103C100003D0BDE81040FDF7E2B810BD00680040D9
:103C20004C0300201D4808B5016841F48001016083
:103C3000016801F480010091016841F40011016004
:103C40000068002200F40010009005210C20FEF70F
:103C500035FA0C20FEF724FA002205213820FEF761
:103C60002DFA3820FEF71CFA002205213920FEF734
:103C700025FA3920FEF714FA002205213B20FEF731
:103C80001DFA3B20FEF70CFA002205214520FEF725
:103C900015FABDE808404520FEF702BA3038024068
:103CA00010B596B01C2211496846FCF7B4FB002100
:103CB000684601F0B1FB0E4C0C491C22A0601C317F
:103CC00007A8FCF7A8FB002107A801F0A5FB0749FE
:103CD00020601C2238310EA8FCF79DFB00210EA8A5
:103CE00001F09AFB606016B010BD0000886A000801
:103CF000000000202DE9F04786B014216846FCF74B
:103D0000C4FB47480025016841F0020101600168D9
:103D100001F002010591016841F040010160016874
:103D200001F040010591016841F001010160016865
:103D300001F001010591016841F00801016001688D
:103D400001F008010591016841F00401016001687A
:103D500001F004010591016841F0800101600168F2
:103D600001F080010591016841F0200101600068C7
:103D7000DFF8B08000F0200005900122402140468D
:103D8000FDF752FF284F4FF4E056012231463846E6
:103D9000FDF74AFFDFF89490002210214846FDF716
:103DA00043FFDFF88CA0002201215046FDF73CFFC5
:103DB00001244020CDE90004029469464046039462
:103DC000FDF732FECDE9006469463846CDE902458B
:103DD000FDF72AFE08204FF40416CDE900066946D7
:103DE00002944046FDF720FE1020CDE9000469460C
:103DF0004846CDE90245FDF717FE3020CDE9000623
:103E0000694602940B48FDF70FFE00946946504640
:103E10000194CDE90245FDF707FE06B0BDE8F08745
:103E20003038024000180240001C024000000240EE
:103E300000040240000802400D4810B50B49016023
:103E40000C49416000214FF480428160C0E90312B7
:103E500041618161C1610162FDF7F2FE002803D07A
:103E6000BDE81040FCF7BBBF10BD0000005C004087
:103E700074030020801A0600104810B50E49016036
:103E80004FF482714160002102228160C0E9031277
:103E900001224261520282611022C0E9072141627F
:103EA00081620A21C162FEF701FC002803D0BDE84F
:103EB0001040FCF794BF10BD00300140C803002043
:103EC00010B588B01C216846FCF7DFFA1448134986
:103ED0000024C0E9001441F28731C0E902410461C5
:103EE0008461FEF7E1FF08B1FCF779FF0C48FFF7AA
:103EF000A2F908B1FCF773FF6020CDE90004029439
:103F00000022694606480494FFF72FF908B1FCF730
:103F100066FF0348FFF7FEF808B010BD00440140FB
:103F2000E00400200C4810B50A4901600B494160CB
:103F3000002181600C22C160C0E904128161C1616D
:103F4000FFF74EFB002803D0BDE81040FCF747BF49
:103F500010BD00000048004028050020A086010098
:103F60000C4810B50A4901604FF4E131416000216D
:103F700081600C22C160C0E904128161C161FFF758
:103F80002FFB002803D0BDE81040FCF728BF10BD70
:103F9000001401406C050020F5EEC01AB0EE413A65
:103FA000F0EE603AB0EE404AF1EE10FA00B502468B
:103FB00009D1B5EEC02AF1EE10FA04D1F5EEC02A0F
:103FC000F1EE10FA78D021EEA10A02EE020A02EE1A
:103FD000A20A01F081F921EE805A62EE004A92EDC8
:103FE000011AD2ED030A22EE800AD2ED002A21EE58
:103FF000202AD2ED021A22EE811A5C4802EEE12A52
:1040000001EEA01AF6EE001A52EEA21A40EEA01A25
:1040100060EE020A64EEA12A45EE610A40EE412AF2
:1040200025EE010A90ED021A04EEC20AB5EEC01A9E
:10403000F1EE10FA2CDD90ED021AD0ED031A21EE0C
:10404000222A9FED4B1A42EE011AC0ED031AD0ED61
:10405000021A21EEA02AD0ED041A42EE011AC0ED98
:10406000041AD0ED021A21EE802AD0ED051A42EE94
:10407000011AC0ED051A90ED031A34EE014A90EDD5
:10408000041A73EE813A90ED051A33EE013A07E017
:104090009FED381A80ED031A80ED041A80ED051AA1
:1040A00090ED011A01EE224A90ED011A41EE203AFC
:1040B000D0ED010A00EE803A9FED2F0AD2ED021AF0
:1040C00024EE002A63EE802A23EE001A92EC020A04
:1040D00092ED033A60EEC23A41EEE23A43EE413AE3
:1040E00073EE804A60EE023AC2ED004A41EE813A38
:1040F00043EE623A33EEA04A60EE223A20EE010A25
:1041000082ED014A40EEC13A00EEA20A43EE023AC5
:1041100001EEC20A73EEA13A70EE030A24EEA40A7D
:10412000C2ED023AC2ED030A04EE040A03EEA30A4A
:1041300000EEA00A01F0D0F8D2ED000A60EE800A8D
:10414000C2ED000AD2ED010A60EE800AC2ED010A5A
:10415000D2ED020A60EE800AC2ED020AD2ED030A35
:1041600020EE800A82ED030A00BD000088000020D6
:104170006F12833A000000006F12033AFEE700005E
:1041800070B5044600212DED028B08464FF4FA6508
:1041900034F91120002A34F9112000DC524212B205
:1041A000824200DD1046491CC9B20429F0D3A8425E
:1041B00022DD02F0EEF941EC180B284602F0E9F995
:1041C00053EC182B02F05EF801F082FF00EE100AAB
:1041D0005FF0000034F9101000EE901AF8EEE00ADB
:1041E00060EE800AFDEEE00A10EE901A24F810103E
:1041F000401CC0B20428EDD3BDEC028B70BDFEE7BD
:104200002DE9F0434B4801222DED048B002181B0B4
:10421000C37A494D494C032B0AD0012B08D06A7050
:104220006180E1816183E1840B460A46009149E0A7
:104230006970404BB0F9047007F1320CB3F9060015
:10424000B3F90860BCF1640F44D800F13203642B69
:1042500040D8322E3EDC16F1320F3BDB2A70DFF8FD
:10426000E0909FED388A00254FF4B4664FEA0108CC
:1042700005EB450004EB8007B7F9060000F5347143
:10428000B14211D900EE100A05EB051109EB8100CE
:10429000B8EEC00AF0EE480A01F0E8F8BDEEC00A38
:1042A00010EE100A788001E0A7F802806D1C042D42
:1042B000DEDBB4F926000090B4F91A30B4F90E2010
:1042C000B4F90210002001F089FB01B0BDEC048BB1
:1042D000BDE8F083297002F05CF99FED1B8B53EC75
:1042E000182B01F0CFFF9FED1A9B53EC192B02F016
:1042F00067F902F01FF9A880384602F04AF953EC3A
:10430000182B01F0BFFF53EC192B02F059F902F002
:1043100011F96880304602F03CF953EC182B01F09B
:10432000B1FF53EC192B02F04BF902F003F9E880CE
:10433000CBE700003C460020A8000020AC45002050
:104340009C440020000000000000000000A0844009
:10435000000000000040BF4010B5806B01684A6853
:1043600022F003024A60416D41F0100141650121D4
:1043700080F85110FEF796F910BD10B5806BFEF76E
:104380009CFB10BD10B5806BFEF789FD10BD10B50C
:10439000806BFEF786FD10BD70B50546846BFDF79A
:1043A00049FC024628680068C00526D42068416898
:1043B00021F020014160A06818B96068B0F5827FE3
:1043C00016D02068416821F0010141606421204637
:1043D00000F076F808B1202060650020E087012019
:1043E00084F85100606D40B12046FEF75BF970BD66
:1043F0002068416821F00301E7E72046FEF75CFBF7
:1044000070BD38B50546846BFDF714FC024628687C
:104410000068C00523D42068416821F02001416074
:104420002068416821F0020141606421204600F0CB
:1044300075F818B1606D40F020006065A06800213B
:1044400018B92068C26880680090E186012084F86D
:104450005100606D18B12046FEF724F938BD2046A2
:10446000FEF71CFD38BD70B50546846BFDF7E2FB19
:10447000024628680068C0051ED42068416821F003
:10448000200141606421204600F048F818B1606DB9
:1044900040F0200060652068416821F00301416020
:1044A0000020E086E087012084F85100606D18B19B
:1044B0002046FEF7F7F870BD2046FEF7F1FC70BD10
:1044C000F8B5044640684FF48273984221D1A06841
:1044D0004FF48065B0F5004F01D0A8420AD12068A2
:1044E000066826F0400606606068984211D1A06810
:1044F000A8420ED000920B4600228021204600F0F8
:1045000039F8002804D0606D40F020006065032079
:10451000F8BD00920B4600220121EFE738B50446B2
:104520001248134B0068B0FBF3F04FF47A73584312
:1045300000906068B0F5827F0DD10B46009200229A
:104540008021204600F016F870B1606D40F0200028
:104550006065032038BD009830B1401E009020688F
:104560008068C0430006F6D5002038BD1C0000203E
:1045700000366E012DE9F8431E46914688460446F2
:10458000089DFDF757FB401B351AFDF753FB074607
:1045900025480068C0F3CB30684338E0701C37D042
:1045A000FDF748FBC01BA84203D215B1009860B3C9
:1045B0002CE02068416821F0E00141606068B0F5BE
:1045C000827F0BD1A068B0F5004F02D0B0F5806FAC
:1045D00004D12068016821F040010160A06AB0F5B3
:1045E000005F09D12068016821F400510160206852
:1045F000016841F400510160012084F8510000205D
:1046000084F850000320BDE8F8830025401E009088
:104610002068816838EA010004D000214945BDD1F5
:104620000020F0E70121F9E71C000020642000F0E1
:10463000E7FEFBE710B5502080F31188BFF34F8FE2
:10464000BFF36F8F01F07CFC18B104494FF080502C
:104650000860002080F3118810BD000004ED00E028
:1046600030B593B030216846FBF70FFF14210CA83A
:10467000FBF70BFF1D480025016841F080510160E8
:10468000006800F0805011901948016841F48041A1
:1046900001600068022400F4804011900120009025
:1046A000000401908001CDE9064006200890A82072
:1046B000CDE9090404200B906846FDF73DFE08B1E2
:1046C00072B6FEE70CA90F2081E831004FF4A0502C
:1046D0000F904FF48050109005210CA8FDF720FD9D
:1046E000002801D072B6FEE713B030BD403802405A
:1046F000007000400248016841F470010160704799
:1047000088ED00E00148FEF752BC0000D006002012
:10471000F0B50268254C264D264E274F274B4FF00B
:10472000804CA04209D0604507D0A84205D0B042D5
:1047300003D0B84201D0984204D122F0700E4A68EA
:1047400042EA0E02A0421BD0604519D0A84217D001
:10475000B04215D0B84213D0984211D0184DA8429B
:104760000ED0184DA8420BD0174DA84208D0174DB7
:10477000A84205D0164DA84202D0164DA84203D13A
:1047800022F44075CA682A434D6922F080022A4308
:1047900002608A68C2620A688262A04201D09842BE
:1047A00001D10969016301214161F0BD00000140AF
:1047B0000004004000080040000C004000040140DC
:1047C0000040014000440140004801400018004002
:1047D000001C00400020004010B501F01F03012123
:1047E000046A99408C430462016A9A401143016251
:1047F00010BD0000F0B5026A22F001020262036AF5
:1048000042688469124E24F073050C682C4323F02F
:1048100002058B682B430D4DA84201D0B04205D153
:1048200023F00807CB683B4323F00403A84201D0E0
:10483000B04205D14D6922F4407215438A692A437A
:1048400042608461496841630362F0BD0000014039
:1048500000040140F0B5026A22F010020262026A0E
:10486000436884690D6824F4E64444EA05248D68AD
:1048700022F0200242EA05120F4D104EA84201D04C
:10488000B04206D1CF6822F0800242EA071222F03D
:104890004002A84201D0B04207D14D6923F44063E1
:1048A00043EA85038D6943EA85034360846149686F
:1048B00081630262F0BD000000000140000401407D
:1048C000F0B5026A22F480720262026A4368C46927
:1048D00022F4007224F073050C68124E2C438D688C
:1048E00042EA05220E4DA84201D0B04206D1CF685F
:1048F00022F4006242EA072222F48062A84201D038
:10490000B04207D14D6923F4405343EA05138D6942
:1049100043EA05134360C4614968C1630262F0BDA4
:10492000000001400004014030B5026A22F48052C8
:104930000262046A4268C3690D6823F4E64343EAED
:1049400005238D6824F4005444EA0534084DA84238
:1049500002D0084DA84204D14D6922F4804242EAB7
:1049600085124260C36149680164046230BD000081
:10497000000001400004014010B5806B0021C1859A
:10498000C184FEF7F7FC10BD01680C3151E8002F1F
:1049900022F4907241E80023002BF5D10168143114
:1049A00051E8002F22F0010241E80023002BF5D14D
:1049B000016B012909D101680C3151E8002F22F067
:1049C000100241E80023002BF5D1202180F83E1091
:1049D00000210163704708B590F83E10222901D0EC
:1049E000022008BD82684FF480539A4201D10169C8
:1049F00021B1816A9A421BD04AB10AE00268816AF9
:104A00005268C2F308020A80816A891C08E00269C0
:104A100072B10268526802F07F020A70816A491C12
:104A20008162C18D491E0904090CC18503D019E0BA
:104A300002685268F1E70168CA6822F02002CA6081
:104A40000168CA6822F48072CA6001684A6922F06B
:104A500001024A61202180F83E10016B012903D038
:104A6000FEF7A6FE002008BD0021016301680C319D
:104A700051E8002F22F0100241E80023002BF5D16D
:104A800001680A68D20602D50A6849680091818DDA
:104A9000FEF76FFCE6E7000070B5044600680169A8
:104AA000E26821F44051114301612169A068E26983
:104AB00008436169114308432168CA6849F20C63DD
:104AC0009A430243CA6020684169A26921F4407197
:104AD0001143416131492068884202D030498842FF
:104AE00002D1FDF7E7FB01E0FDF7D4FBE26900230B
:104AF000192164253226B2F5004F626828D0A0FB48
:104B00000101930F9200FBF70FFC0146B0FBF5F09B
:104B10006FF01802504301EB800006EB0010B0FB71
:104B2000F5F000F0F002B1FBF5F002EB0012B1FB82
:104B3000F5F06FF01803584301EB800006EB00100E
:104B4000B0FBF5F000F00F0021681044886070BDE4
:104B5000A0FB010192185B41FBF7E6FB0146B0FBAD
:104B6000F5F00201B1FBF5F06FF01803584301EBCB
:104B7000800006EBC000B0FBF5F000F0F80002EB9F
:104B80004002B1FBF5F0584301EB800006EBC0009A
:104B9000B0FBF5F000F00700D6E700000010014080
:104BA0000014014010B50448FCF70EF9BDE81040B0
:104BB0000148FEF7E1BB0000280500200C4808B5BD
:104BC00001680A684A680092CA6842F01002CA6026
:104BD00001684A6942F040024A611221009101686D
:104BE000044B806BA3F11802091DFBF779FF08BD88
:104BF000280500202446002070B504460088C0F334
:104C00000A02344802806178A378C90841EA431156
:104C1000C1F30A034380A178E578890941EA850157
:104C20002579A2F5806241EA8521C1F30A058580D4
:104C300021796679490841EAC611C1F30A06C6809E
:104C40006179A3F58063C1F3011181726179A5F5E2
:104C500080658909C172E18881812189C181618969
:104C60000182217B8174617BC174E1898182218A07
:104C7000028043808580A6F58066C680A1F58061AC
:104C80000181154D0020215C2954401C0728FADDC4
:104C90003321114800F020FA08202A18215C401C1A
:104CA00002F8081C0F28F8DD34210B4800F014FA34
:104CB000207C2870607C6870A07CA8700320002194
:104CC0002954401C0728FBDDBDE87040352102480F
:104CD00000F002BA3C460020C60000200148FEF762
:104CE0004BBB00006C050020FEE74100080218BF26
:104CF00004200A0E18BF40F001004FF07F4232EA54
:104D0000010108BF40F00200012808BF05207047DC
:104D10000907090E002804DB00F1E02080F80014E8
:104D2000704700F00F0000F1E02080F8141D70477C
:104D300010B54FF00E402DED028BB0EE408A18EE0C
:104D4000104A00EB4400B0F1506F4AD84FF0FC40DD
:104D5000B0EB440F22D2B0EEC80AF7EE000A30EEF4
:104D6000C00AF6EE000A60EE208A18EE900A00F003
:104D700063FE01EE100A14F0004F1DBFDFED2D0A97
:104D80009FED2D0AB1EE411ADFED2C0A08BF9FED11
:104D90002C0AF8EE001A21EE218A05E0DFED290A3F
:104DA00068EE088AB0EE600A9FED271ADFED271A39
:104DB00030EE080A48EE811A9FED251A08EEA11A76
:104DC000DFED241A48EE811A9FED231A08EEA11A8E
:104DD00068EE281ABDEC028B01EE810A30EE200A43
:104DE00010BD4FF0E440B0EB440F0CD918EE100AA0
:104DF000FFF77BFF042808BF00F066F9B0EE480A11
:104E0000BDEC028B10BD4FF07F40B0EB440F07D2DA
:104E1000B0EE480ABDEC028BBDE8104000F046B988
:104E20000120FBF761FBBDEC028BBDE8104000F0F8
:104E300043B900000000C9BF22AAFDB90000C93F64
:104E400022AAFD390000000024FE1C3DC78AD83C80
:104E50001E67383D1B93993DAFAA2A3E10EE100AFB
:104E600010B510EE901A4FF0684202EB40032DEDA2
:104E7000028BB3F1654F3CBF02EB4102B2F1654FCB
:104E80007CD200BFC0F3C753C1F3C7529A1A1B2A82
:104E900009DD10F0004F14BF9FED6E0A9FED6E0A02
:104EA000BDEC028B10BD12F11A0F1BDA11F0004F8E
:104EB00009D010F0004F0CBF9FED680A9FED680A03
:104EC000BDEC028B10BD80EE208A18EE100AFFF7B1
:104ED0000CFF042808BF00F0F7F8B0EE480ABDEC5C
:104EE000028B10BD4200B2EB410F37D910F0004FDA
:104EF00019BFDFED5C1A9FED5C1ADFED5C1A9FEDC8
:104F00005C1AB0EE602A0A46F1EE400A80F00041D9
:104F1000B0EE420A10460A1A5200B2F1807F34D233
:104F2000484010F0004FDFED532A9FED533A1DBF6C
:104F3000BEEE002A71EEE21A31EE431AB6EE002AF6
:104F400004BF71EEA21A31EE031AF0EE402A42EECF
:104F5000602A40EE020A82EEA02A18E011F0004F0B
:104F600004BF9FED461AF0EE411AD4D010F0004F66
:104F70001CBFDFED431A9FED431A00E026E004BF9B
:104F8000DFED411A9FED411AC5E780EE202A22EE9F
:104F9000020ADFED3F0ADFED3F2ABDEC028B40EE57
:104FA000202ADFED3D0A40EE220ADFED3C2A40EEEA
:104FB000202ADFED3B0A40EE220A22EE000A00EE34
:104FC000201A31EE020A30EE210A10BD4FF07F4266
:104FD000B2EB400F28BFB2EB410F05D2BDEC028B04
:104FE000BDE8104000F065B840EA01035B0008BF6F
:104FF00041F0FF410BD0B2EB400F08BFB2EB410FC5
:1050000008D120F0804000EE100A21F0804100EE2F
:10501000901A37E7B2EB400F12BF5FEA410240F04F
:10502000FF4001F000413FF42DAF4A0092EA4003F7
:105030003FF528AF002AACBF9FED1A1A9FED1A1A50
:1050400020EE010A60EE810A10EE100A10EE901AAE
:1050500018E70000DB0FC9BFDB0FC93FDB0F49407A
:10506000DB0F49C00000C9BF22AAFDB90000C93F3B
:1050700022AAFD390060ED3EC30ACE3700000000D1
:10508000000049C022AA7DBA0000494022AA7D3A08
:105090002DAD65BD8FB8D53D0FB511BE61C84C3E75
:1050A000A8AAAABE0000804F0000802F30EE000AA0
:1050B000704730EE200A7047DFED020A80EEA00A4A
:1050C00070470000000000009FED020A20EE000A79
:1050D000704700000000001000B587B00246009144
:1050E000002102910391082104910123694602489D
:1050F000FBF789FE07B000BD240300202DE9F8432B
:105100001D4800240178002933D14078002830D18F
:10511000194F1A4D0837A5F5887800BF37F91400E4
:1051200004EB041100EE100A04EB440005EB8006CA
:10513000F8EEC00AB6F9060000EE100A08EB81008E
:10514000B8EEC00A00F092F9BDEEC00A641CE4B2E9
:1051500010EE100A042C7080E0D3B5F92600009000
:10516000B5F91A30B5F90E20B5F90210002000F09B
:1051700035FCBDE8F8830000A8000020AC45002005
:105180000D48818842881144C2880A4400F1080110
:105190000A8042888388D21AC3881A444A80828847
:1051A00043881A44C3889A1A8A8082884388C088B0
:1051B000D21A1044C8807047A80000200068016817
:1051C00041F4002101600148FFF716BD0C460020A4
:1051D0000068016821F4002101600148FFF70CBD5F
:1051E000244600202DE9F0411D462DED048BB7EE3D
:1051F000008AF0EE008A90ED001A90ED010AF0EEC0
:10520000480A61EE011A16460F46044640EE001A9F
:1052100051EEA80AD0ED031A21EE211AD0ED021AA0
:1052200000EE211A21EE280AFFF718FE10EE100AF0
:1052300001F0AEFB9FED269B53EC192B01F0C0F95A
:1052400000F046FF386094ED010AD4ED030A94EDB6
:10525000021A20EE200AD4ED000A00EEC10AF8EE90
:10526000000A20EE200AFFF763FD10EE100A01F09D
:105270008FFB53EC192B01F0A3F900F029FF3060EC
:1052800094ED001A94ED030AF0EE480A61EE011A5B
:1052900040EE001A51EEA80AD4ED011A21EE211AAF
:1052A000D4ED021A01EE801A21EE280AFFF7D6FD8E
:1052B00010EE100A01F06CFB53EC192B01F080F991
:1052C00000F006FF2860BDEC048BBDE8F081000013
:1052D0006666666666A64C4010EE100AF6EE000A98
:1052E000074960EE200AA1EB600000EE100A20EEF4
:1052F000801AF7EE080A41EE400A20EE800A704755
:10530000DF59375F03B583B00A23012204A98DE872
:105310000E00134602461C210248FCF755FD05B05D
:1053200000BD00007403002010B5144C0022402181
:105330002046FCF779FC3220FCF764FB0122402177
:105340002046FCF771FC3220FCF75CFB0921412070
:10535000FFF7D8FF9620FCF755FBC0214220FFF74E
:10536000D1FF9620FCF74EFB0B210A20FFF7CAFF66
:10537000BDE810409620FCF745BB00000018024035
:10538000FCF70CFEFFF76CF9FEF7B4FCFEF74AFCE5
:10539000FEF752FDFEF770FDFEF792FDFEF7C2FD2F
:1053A000FEF7FCFBFEF71CFCFEF7DAFD0F4C0022BB
:1053B0004FF480612046FCF737FC0022A114204600
:1053C000FCF732FC0022E1142046FCF72DFC002102
:1053D0000748FDF75FFFFBF7E7FAFBF70FFBFFF767
:1053E000EDFBFEF75DFC00F012F8FEE7001C02404A
:1053F000E004002001460020842900D0C81C70472A
:1054000010B500B9012000F037FC002010BD10B528
:1054100000F058FC002010BD7FB50D4604464169E0
:10542000B0F9080081B1A16971B1FFF7E3FFD4E9D8
:1054300005128DE80700D4E900102B46226900F020
:1054400054FD039004B070BDFFF7D4FF03A9CDE96C
:105450000001208A2B4682B2D4E9001000F018FD2A
:10546000012801D00020EDE70398EBE7D0ED0E1AFC
:10547000C0ED0F1AC0ED050A80ED060A30EEC00A35
:1054800080ED0E0AD0ED000A20EE801A80ED081A99
:10549000D0ED090A90ED012A42EE000A30EE610AD1
:1054A000C0ED090A90ED0B2A80ED0C2A80ED0B0A65
:1054B000D0ED021A61EE801AC0ED0A1A90ED040ACE
:1054C000F4EEC00AF1EE10FA09DCB1EE400AF4EE97
:1054D000C00AF1EE10FA02D390ED090A01E080ED66
:1054E000090A31EE000A30EE210A80ED070AD0EDFC
:1054F000030AB4EEE00AF1EE10FA06DCF1EE600AFF
:10550000B4EEE00AF1EE10FA01D2C0ED070A90ED18
:10551000070A7047002827D0002925D091ED001AEE
:1055200080ED001A91ED011A80ED011A91ED021A39
:1055300080ED021A80ED030A9FED0C0AC0ED040A0B
:1055400080ED0D0A80ED0C0A80ED0B0A80ED070A54
:1055500080ED0A0A80ED090A80ED080A80ED100A44
:1055600080ED0F0A80ED0E0A704700000000000079
:105570002DE9F041184C0F460546E6682068001DED
:1055800000F0A2FA38B9206890F82C100120884069
:10559000216981432161681C07D137B12168BDE8C9
:1055A000F0410E48091D00F0E3BA20683544B542C9
:1055B0004560216805D2A06BBDE8F041091D00F0EF
:1055C000BFBA606B091D00F0BBFAA06A854200D229
:1055D000A562BDE8F081000020000020F407002053
:1055E0002DE9F041054600F0CFFA2E4CA068401C92
:1055F000A06020682C4F10B1606940B32DE0256099
:10560000A068012829D1002606EB860007EB800060
:1056100000F088FA761C072EF6D323488C3000F071
:1056200081FA2148A03000F07DFA1F48B43000F024
:1056300079FA1D48C83000F075FA1B48DC3000F0DC
:1056400071FA19488C3060631430A06305E020685B
:10565000E96AC06A884200D82560606A401C6062BE
:10566000E96A0120226988401043206101EB810032
:1056700007EB8000291D00F07BFA00F0A5FA6069B5
:1056800000280CD02068E96AC06A884207D207491E
:105690004FF080500860BFF34F8FBFF36F8FBDE8AE
:1056A000F0810000200000201807002004ED00E039
:1056B00010B5044690F8510058B101280CD00228CA
:1056C0000FD0502080F31188BFF34F8FBFF36F8F3F
:1056D000FEE7206B00F08CFA2046BDE8104000F099
:1056E00087BA10BD10484FF47051420706D0C01D54
:1056F0000D4920F00700411AC1F570510B4A0023F3
:105700000144C2E900030839183A21F00701116089
:105710004B600B600B1AC0E9001393604FF0004020
:10572000536050617047000008080020740000209A
:10573000144E154CA6F1C8074FF08058DFF84C9076
:1057400012E000BF00F020FAF068C568281D00F0E4
:10575000BBF9A068401EA0606068401E606000F059
:1057600033FA2846FFF7A4FF60680028EAD13868BA
:105770000128F9D9C9F80080BFF34F8FBFF36F8FAD
:10578000F2E70000E00700202000002004ED00E028
:105790002DE9F05F8846DDE90B94154683469100BC
:1057A0009A460A9EA522206BFAF767FE6FF0030166
:1057B000206B01EB8501084420F00707780707D02C
:1057C000502080F31188BFF34F8FBFF36F8FFEE738
:1057D0000025B8F1000F0FD05FF00000221818F874
:1057E000001082F8341018F8001011B1401C102875
:1057F000F4D384F8435001E084F83450072E00D3EA
:105800000626E662C4E91165201D00F096F904F150
:10581000180000F092F92461C6F107006462A061EB
:10582000E56484F8505052465946384600F0C0F8B6
:105830002060B9F1000F01D0C9F80040BDE8F09F29
:1058400030B5114900E011460A688242FBD34B682B
:105850005C18844203D14068184448600846436895
:105860001C18944209D1084C183C2468A24209D063
:1058700052681A4442600A6812680260814200D08D
:10588000086030BD0460F9E7740000200648416BF1
:10589000096829B1416BC968C96849688162704764
:1058A0004FF0FF31FAE70000200000200848406870
:1058B000401C4FF0500080F3118804D0BFF34F8F8D
:1058C000BFF36F8FFEE7BFF34F8FBFF36F8FFEE71E
:1058D0007C0000202DE9F0410546002700F028FA61
:1058E000324E306808B9FFF7FDFE706905424ED1AF
:1058F000C5B3083568070ED005F00700C0F10800F1
:105900000544680707D0502080F31188BFF34F8FFC
:10591000BFF36F8FFEE72DB37068854237D82348F9
:10592000183001460C6801E020460C466168A94227
:1059300002D221680029F7D131688C4227D007684C
:105940002168016060680837411B10290FD9601970
:10595000420708D0502080F31188BFF34F8FBFF368
:105960006F8FFEE713E041606560FFF769FF6168D4
:105970007068401A7060B268904200D2B06070697E
:1059800001430020C4E90001F068401CF06000F011
:105990003DFB780707D0502080F31188BFF34F8F6D
:1059A000BFF36F8FFEE73846BDE8F0815C00002052
:1059B00010B5031F4FF080741C601B1F21F0010104
:1059C0001960191F044B0B6014390A60091F6FF02E
:1059D000020244380A6010BDAD58000810B588B006
:1059E0000A9C18B340F2FF1002900020049005902A
:1059F00008200690080A8DF800008DF80110100AA2
:105A00008DF80200180A8DF804008DF80530200A80
:105A10008DF806008DF803208DF8074001236A46B3
:105A200002A90448FBF7EFF908B010BD4FF400706D
:105A3000DAE700004C03002010B500EE100A2DED4F
:105A4000028BB1EEC08A18EE100A20F00040C0F1BF
:105A5000FF40C00F0AD010EE100A20F00040C0F145
:105A6000FF40C00F04BF0120FAF73EFD18EE100AF8
:105A7000BDEC028B10BD000038B50446006801681B
:105A8000406800900F4884421BD1A06B00680168F9
:105A900021F001010160A06B01684A68062A06D165
:105AA0000968090301D5416C00E0C16B8847A16B0F
:105AB000182009684860A06B0068016841F0010186
:105AC000016038BD28050020D0E9013201699A60E3
:105AD000D0E901235A604A68824201D182684A6053
